:020000040000FA
:100000000C94C8000C94F0000C94F0000C94F000D8
:100010000C94F0000C94F0000C94F0000C94F000A0
:100020000C94F0000C94F0000C94F0000C94F00090
:100030000C94F0000C94F0000C94F0000C94F00080
:100040000C949D0B0C94F0000C940D0C0C94E70B8D
:100050000C94F0000C94F0000C94F0000C94F00060
:100060000C94F0000C94F0009979825AA1EBD96EAF
:10007000DCBC1B8FD6C162CA982F8A42914437716B
:10008000CFFBC0B5A5DBB5E95BC25639F111F1591B
:10009000A4823F92D55E1CAB98AA07D8015B83125D
:1000A000BE853124C37D0C55745DBE72FEB1DE8009
:1000B000A706DC9B74F19BC1C1699BE48647BEEF38
:1000C000C69DC10FCCA10C246F2CE92DAA84744AC3
:1000D000DCA9B05CDA88F97652513E986DC631A839
:1000E000C82703B0C77F59BFF30BE0C64791A7D518
:1000F0005163CA0667292914850AB72738211B2EA0
:10010000FC6D2C4D130D385354730A65BB0A6A7687
:100110002EC9C281852C7292A1E8BFA24B661AA893
:10012000708B4BC2A3516CC719E892D1240699D6A3
:1001300085350EF470A06A1016C1A419086C371E1C
:100140004C774827B5BCB034B30C1C394AAAD84EFA
:100150004FCA9C5BF36F2E68EE828F746F63A57835
:100160001478C8840802C78CFAFFBE90EB6C50A4C8
:10017000F7A3F9BEF27871C60123456789ABCDEFCD
:10018000FEDCBA9876543210F0E1D2C33F0CCD12A7
:1001900011241FBECFEFD8E0DEBFCDBF12E0A0E03C
:1001A000B1E0EEEFF7E302C005900D92A236B10781
:1001B000D9F723E0A2E6B2E001C01D92AC3EB2073F
:1001C000E1F710E0C7ECD0E004C02197FE010E94E7
:1001D0004217C63CD107C9F70E948B0C0C94F21B46
:1001E0000C9400003FB7F8948091790290917A02C4
:1001F000A0917B02B0917C0226B5A89B05C02F3F41
:1002000019F00196A11DB11D3FBFBA2FA92F982F3C
:100210008827BC01CD01620F711D811D911D42E037
:10022000660F771F881F991F4A95D1F708952FB73A
:10023000F8946091750270917602809177029091A6
:1002400078022FBF08950895AF92BF92CF92DF92A8
:10025000EF92FF920F931F93CF93DF936C017B017B
:100260008B01040F151FEB015E01AE18BF08C0170C
:10027000D10759F06991D601ED91FC910190F0817F
:10028000E02DC6010995892B79F7C501DF91CF9142
:100290001F910F91FF90EF90DF90CF90BF90AF90A4
:1002A0000895FC01538D448D252F30E0842F90E07C
:1002B000821B930B541710F0CF9608950197089561
:1002C000FC01918D828D981761F0A28DAE0FBF2F2A
:1002D000B11D5D968C91928D9F5F9F73928F90E080
:1002E00008958FEF9FEF08950F931F930E941701BA
:1002F00060938502709386028093870290938802B0
:100300008DE792E00E94600197FF1DC00E941701D7
:100310000091850210918602209187023091880217
:10032000601B710B820B930B009181021091820272
:10033000209183023091840260177107820793072E
:10034000F8F28FEF9FEF1F910F910895FC01918DAF
:10035000828D981731F0828DE80FF11D858D90E028
:1003600008958FEF9FEF0895FC01918D228D892FC5
:1003700090E0805C9F4F821B91098F7399270895AD
:100380008DE792E00E94B40121E0892B09F420E07E
:10039000822F089580E090E0892B29F00E94C0010F
:1003A00081110C9400000895FC01A48DA80FB92FB1
:1003B000B11DA35ABF4F2C91848D90E001968F738D
:1003C0009927848FA689B7892C93A089B1898C91AC
:1003D000837080648C93938D848D981306C00288FB
:1003E000F389E02D80818F7D80830895EF92FF92C5
:1003F0000F931F93CF93DF93EC0181E0888F9B8D48
:100400008C8D98131AC0E889F989808185FF15C001
:100410009FB7F894EE89FF896083E889F989808124
:100420008370806480839FBF81E090E0DF91CF91F3
:100430001F910F91FF90EF900895F62E0B8D10E015
:100440000F5F1F4F0F731127E02E8C8D8E110CC084
:100450000FB607FCFACFE889F989808185FFF5CFCF
:10046000CE010E94D401F1CFEB8DEC0FFD2FF11DD9
:10047000E35AFF4FF0829FB7F8940B8FEA89FB890C
:1004800080818062CFCFCF93DF93EC01888D88236A
:10049000B9F0AA89BB89E889F9898C9185FD03C0E7
:1004A000808186FD0DC00FB607FCF7CF8C9185FFCC
:1004B000F2CF808185FFEDCFCE010E94D401E9CF3C
:1004C000DF91CF9108952F923F924F925F926F925A
:1004D0007F928F929F92AF92BF92CF92DF92EF92D4
:1004E000FF920F931F93CF93DF93CDB7DEB7C9541D
:1004F000D1090FB6F894DEBF0FBECDBF2A969FAFCD
:100500008EAF2A976F8FFC01E359FF4F80812FEF49
:100510003FEF811190C22A96EEADFFAD2A97EB59BD
:10052000FF4F2081318142815381648175818681B1
:100530009781A1E00E942217208331834283538355
:1005400064837583868397832A96EEADFFAD2A97E1
:10055000EC59FF4F80812A96AEADBFAD2A97A80F08
:10056000B11D4F8C94964C928F5F8083803409F03C
:100570005FC22A96EEADFFAD2A979F01205C3F4FE8
:1005800044A185A190E0B0E0A0E0DC019927882794
:10059000B42B47A1842B46A1942B84A395A3A6A397
:1005A000B7A334962E173F0759F72A96AEADBFADC5
:1005B0002A971496CD90DD90ED90FC901797C8A2E5
:1005C000D9A2EAA2FBA218964D905D906D907C9006
:1005D0001B974CA25DA26EA27FA21C964D905D90CF
:1005E0006D907C901F9748A659A66AA67BA6509648
:1005F0004D905D906D907C9053974CA65DA66EA635
:100600007FA654964D905D906D907C90579748AA28
:1006100059AA6AAA7BAA58964D905D906D907C90DD
:100620005B974CAA5DAA6EAA7FAA5C964D905D90DE
:100630006D907C905F9748AE59AE6AAE7BAE909657
:100640004D905D906D907C9093974CAE5DAE6EAE8C
:100650007FAE08E710E01E8F0D8F2CA53DA54EA59F
:100660005FA52D8B3E8B4F8B588F48A559A56AA54A
:100670007BA5498B5A8B6B8B7C8B6CA17DA18EA14A
:100680009FA169877A878B879C87CD82DE82EF82E4
:10069000F88688AD99ADAAADBBAD8D879E87AF8733
:1006A000B88B4CA85DA86EA87FA8498E5A8E6B8E19
:1006B0007C8E4CAC5DAC6EAC7FAC88A899A8AAA827
:1006C000BBA8312C212CED8DFE8D85919591A591A6
:1006D000B491B501A4012AE1440F551F661F771F8D
:1006E0002A95D1F77501640136E0F694E794D79422
:1006F000C7943A95D1F7C42AD52AE62AF72AB50134
:10070000A401E5E1440F551F661F771FEA95D1F755
:1007100095018401FBE03695279517950795FA9585
:10072000D1F7402B512B622B732BC426D526E626FE
:10073000F726B501A40119E1769567955795479578
:100740001A95D1F795018401E7E0000F111F221FD0
:10075000331FEA95D1F7402B512B622B732B4C257D
:100760005D256E257F25F101EF70FF273896EE0F8E
:10077000FF1FEE0FFF1F2A96EEACFFAC2A97EE0D7F
:10078000FF1D0481158126813781800F911FA21FD3
:10079000B31F840F951FA61FB71F0D851E852F85BC
:1007A0003889498D5A8D6B8D7C8D04271527262716
:1007B0003727082119212A213B21CD84DE84EF84AB
:1007C000F8880C251D252E253F25AC01BD01400FC5
:1007D000511F621F731F440E551E661E771E0D812A
:1007E0001E812F8138858EE1000F111F221F331FBC
:1007F0008A95D1F7CD80DE80EF80F88492E0F69480
:10080000E794D794C7949A95D1F7C02AD12AE22ABF
:10081000F32A4D815E816F81788523E1440F551F56
:10082000661F771F2A95D1F78D819E81AF81B8858C
:100830003DE0B695A795979587953A95D1F7842B86
:10084000952BA62BB72BC826D926EA26FB264D8149
:100850005E816F817885E6E1769567955795479536
:10086000EA95D1F70D811E812F813885FAE0000FBE
:10087000111F221F331FFA95D1F7402B512B622BEA
:10088000732B4C255D256E257F2589859A85AB8543
:10089000BC85E988FA880B891C898E299F29A02BA1
:1008A000B12B0D811E812F81388580239123A223B6
:1008B000B32309851A852B853C85C988DA88EB889E
:1008C000FC880C211D212E213F21802B912BA22B56
:1008D000B32B840F951FA61FB71FED88FE880F89C5
:1008E000188DE40CF51C061D171DE982FA820B8396
:1008F0001C8393018201080F191F2A1F3B1F249696
:100900000CAF1DAF2EAF3FAF24971FEF211A310A56
:1009100020E42216310409F0B0C048A059A06AA012
:100920007BA024964CAD5DAD6EAD7FAD2497440E9B
:10093000551E661E771E2A96AEADBFAD2A97149639
:100940004D925D926D927C9217978CA19DA1AEA164
:10095000BFA14D805E806F807884840D951DA61D9B
:10096000B71D2A96EEADFFAD2A9780879187A287A3
:10097000B38788A599A5AAA5BBA549845A846B8489
:100980007C84840D951DA61DB71D84879587A68739
:10099000B7878CA59DA5AEA5BFA549885A886B8849
:1009A0007C88840D951DA61DB71D808B918BA28B15
:1009B000B38B88A999A9AAA9BBA949805A806B8041
:1009C0007C80840D951DA61DB71D848B958BA68BF1
:1009D000B78B8CA99DA9AEA9BFA9880D991DAA1D89
:1009E000BB1D808F918FA28FB38F88AD99ADAAADBB
:1009F000BBAD498C5A8C6B8C7C8C840D951DA61DCF
:100A0000B71D848F958FA68FB78F8CAD9DADAEAD82
:100A1000BFAD4D845E846F847888840D951DA61DBE
:100A2000B71D80A391A3A2A3B3A3EC59FF4F1082DB
:100A30004F8C242D30E081E090E05F8C521613063D
:100A400011F090E080E0C75BDF4F0FB6F894DEBF97
:100A50000FBECDBFDF91CF911F910F91FF90EF900F
:100A6000DF90CF90BF90AF909F908F907F906F90CE
:100A70005F904F903F902F900895C1018F709927FC
:100A800000E1201631040CF4DEC0880F991F880F96
:100A9000991F2A964EAC5FAC2A97480E591E5E8A63
:100AA0004D8AF1013297EF70FF273896EE0FFF1F46
:100AB000EE0FFF1F2A966EAC7FAC2A97E60DF71D4E
:100AC0000481158126813781F1013F97EF70FF275F
:100AD0003896EE0FFF1FEE0FFF1FE60DF71D448146
:100AE000558166817781F1013797EF70FF2738963E
:100AF000EE0FFF1FEE0FFF1FE60DF71DC480D58020
:100B0000E680F780F20184A195A1A6A1B7A1C80E45
:100B1000D91EEA1EFB1E28013901AFE0440C551C0A
:100B2000661C771CAA95D1F7D901C801072E71E17F
:100B3000B695A795979587957A95D1F7702D482A00
:100B4000592A6A2A7B2A28964CAE5DAE6EAE7FAEDD
:100B50002897D901C801072E7DE0880F991FAA1F89
:100B6000BB1F7A95D1F7702D28013901032E33E18F
:100B700076946794579447943A95D1F7302D842909
:100B80009529A629B72928964CAC5DAC6EAC7FACF4
:100B9000289784259525A625B7250F2EFAE03695AA
:100BA000279517950795FA95D1F7F02D802791276E
:100BB000A227B327C80ED91EEA1EFB1E2A013B013D
:100BC00087E076946794579447948A95D1F7DB0130
:100BD000CA0129E1880F991FAA1FBB1F2A95D1F7C7
:100BE000482A592A6A2A7B2ADB01CA013EE0880F7B
:100BF000991FAA1FBB1F3A95D1F78A019B010F2E9F
:100C0000F2E13695279517950795FA95D1F7F02DCE
:100C1000802B912BA22BB32B84259525A625B725B8
:100C200023E076956795579547952A95D1F78427C0
:100C30009527A627B7278C0D9D1DAE1DBF1D84A32C
:100C400095A3A6A3B7A30D8D1E8D0C5F1F4F1E8FFE
:100C50000D8F29893A894B895C892D8B3E8B4F8B6F
:100C6000588F49855A856B857C85498B5A8B6B8B50
:100C70007C8B6D817E818F81988569877A878B8750
:100C80009C8724968CAD9DADAEADBFAD24978D8372
:100C90009E83AF83B8874D845E846F847888C98CC7
:100CA000DA8CEB8CFC8CCD86DE86EF86F88A898E1A
:100CB0009A8EAB8EBC8E89809A80AB80BC8003CD2F
:100CC00090E080E008952F923F924F925F926F9252
:100CD0007F928F929F92AF92BF92CF92DF92EF92CC
:100CE000FF920F931F93CF93DF93CDB7DEB7A297F9
:100CF0000FB6F894DEBF0FBECDBF9AA389A3FC0147
:100D0000EC5AFF4F8081A9A1BAA1A80FB11D54963A
:100D10006C938F5F8083803409F033C1E9A1FAA11D
:100D20009F01205C3F4F4489858990E0B0E0A0E0BE
:100D3000DC0199278827B42B4789842B4689942B7B
:100D4000848B958BA68BB78B34962E173F0759F75C
:100D5000A9A1BAA10D911D912D913C9113970D87D9
:100D60001E872F87388B14960D911D912D913C91E4
:100D70001797098B1A8B2B8B3C8B18960D911D9115
:100D80002D913C911B970D8B1E8B2F8B388F1C96B2
:100D90000D911D912D913C911F97098F1A8F2B8FCB
:100DA0003C8F50960D911D912D913C9153970D8F35
:100DB0001E8F2F8F38A309891A892B893C89498C6A
:100DC0005A8C6B8C7C8CCD88DE88EF88F88C4D8DAE
:100DD0005E8D6F8D78A14D835E836F8378874D859F
:100DE0005E856F85788949835A836B837C83312C38
:100DF000212CC10164E170E00E94D116FB01EE0FCD
:100E0000FF1FEE0FFF1FE859FF4F85909590A590AB
:100E1000B490F101EF70FF273596EE0FFF1FEE0F34
:100E2000FF1F49A15AA1E40FF51F89819A81AB8167
:100E3000BC814BE1B695A795979587954A95D1F7D3
:100E400049815A816B817C81689414F8440F551F45
:100E5000661F771F1694D1F7842B952BA62BB72BE3
:100E6000AC01BD01480D591D6A1D7B1D808191811A
:100E7000A281B381840F951FA61FB71F4D815E818C
:100E80006F817885840F951FA61FB71F54E1251623
:100E900031040CF00BC1B301A2014C255D256E2578
:100EA0007F2540235123622373234425552566253E
:100EB0007725840F951FA61FB71FB901A801E2E08F
:100EC0007695679557954795EA95D1F74801590169
:100ED000FEE1880C991CAA1CBB1CFA95D1F7842A48
:100EE000952AA62AB72AEFEF2E1A3E0AF0E52F160A
:100EF000310409F05FC00D851E852F853889800F6C
:100F0000911FA21FB31FE9A1FAA180839183A2833D
:100F1000B38389899A89AB89BC8909811A812B811C
:100F20003C81800F911FA21FB31F84839583A683EA
:100F3000B7830D891E892F89388D800E911EA21EC0
:100F4000B31E80869186A286B386898D9A8DAB8DDD
:100F5000BC8D8C0D9D1DAE1DBF1D84879587A687FA
:100F6000B7870D8D1E8D2F8D38A1400E511E621E2C
:100F7000731EDF01408A518A628A738AAC5ABF4F5E
:100F80001C92A2960FB6F894DEBF0FBECDBFDF91C4
:100F9000CF911F910F91FF90EF90DF90CF90BF9076
:100FA000AF909F908F907F906F905F904F903F9009
:100FB0002F90089591012F703327220F331F220F96
:100FC000331F09A11AA1020F131F1E830D83F801FD
:100FD000248935894689578929873A874B875C87D1
:100FE000F0E12F1631040CF450C091012350310967
:100FF0002F7033272B5F3F4F220F331F220F331FDA
:1010000009A11AA1200F311FF1013897EF70FF27B6
:101010003596EE0FFF1FEE0FFF1F0E0F1F1FF9017A
:101020004081518162817381F801008111812281A7
:101030003381402751276227732709851A852B851D
:101040003C854027512762277327F1013E97EF70B7
:10105000FF273596EE0FFF1FEE0FFF1F29A13AA1C4
:10106000E20FF31F00811181228133814027512734
:1010700062277327440F551F661F771F411DED819F
:10108000FE81448B558B668B778B09811A812B816E
:101090003C814D825E826F82788626013701750120
:1010A000640189839A83AB83BC83A3CE68E226164E
:1010B00031045CF4B301A2014C255D256E257F252A
:1010C0004027512762277327F4CE7CE3271631048B
:1010D0008CF7B301A2014C295D296E297F29402399
:1010E000512362237323530142018C209D20AE20A3
:1010F000BF20482959296A297B29DBCE0F931F93EA
:10110000CF93DF938C010C5F1F4FC62FD0E0FC0103
:10111000EF59FF4F2081211125C03897208131815F
:10112000428153816481758186819781A1E00E940B
:10113000221720833183428353836483758386839C
:1011400097836C2FC8010E9463069E0181E090E0A6
:10115000C217D30711F090E080E0DF91CF911F918B
:101160000F9108952FEF3FEFF1CFFC010190002088
:10117000E9F73197AF01481B590BBC018DE792E0AD
:101180000C9424018F929F92AF92BF920F931F9362
:10119000CF93DF93CDB7DEB7A1970FB6F894DEBF3C
:1011A0000FBECDBF19A2423008F44AE08E010F5D98
:1011B0001F4F842E912CB12CA12CA50194010E94CB
:1011C0008815E62FB901CA01EA30F4F4E05DD801D0
:1011D000EE938D01232B242B252B79F790E080E0D3
:1011E000109719F0CD010E94B508A1960FB6F8949A
:1011F000DEBF0FBECDBFDF91CF911F910F91BF908A
:10120000AF909F908F900895E95CE1CFCF93DF93EB
:101210000E94B508EC018AE291E00E94B5088C0FAB
:101220009D1FDF91CF910895CF93DF93FC014481FF
:101230005581608171818DE792E00E942401EC016B
:101240008AE291E00E94B5088C0F9D1FDF91CF913B
:1012500008950C94B508CF92DF92EF92FF92CF934E
:10126000DF936C01990FEE08FF08F7FE1FC06DE2D7
:101270008DE792E00E94F601EC0166277727CB010B
:101280006C197D098E099F094AE00E94C208C80FA7
:10129000D91F8AE291E00E94B5088C0F9D1FDF9153
:1012A000CF91FF90EF90DF90CF9008954AE0C70173
:1012B000B6010E94C208EC01ECCF4F925F926F9290
:1012C0007F928F929F92AF92BF92CF92DF92EF92D6
:1012D000FF920F931F93CF936B017C01742EAC018F
:1012E0009B010E94CC16882399F08DE291E0CF916A
:1012F0001F910F91FF90EF90DF90CF90BF90AF9034
:101300009F908F907F906F905F904F900C94B50856
:1013100046015701E894B7F82FEF3FEF4FE75FE73B
:10132000C501B4010E94CC1681110DC02FEF3FEF13
:101330004FE75FE7C501B4010E94F81318161CF4CB
:1013400081E391E0D4CF2FEF3FEF4FE75FE4C70198
:10135000B6010E94C71618161CF485E391E0C7CFAA
:101360002FEF3FEF4FE75FECC701B6010E94F81384
:1013700087FDF3CF20E030E0A901C701B6010E944C
:10138000F81310E000E087FF0AC06DE28DE792E0FD
:101390000E94F6018C01F7FAF094F7F8F094C0E09F
:1013A00060E070E080E09FE37C1641F020E030E0F8
:1013B00040E251E40E942616CF5FF6CFA7019601C6
:1013C0000E94BA152B013C010E9498164B015C014A
:1013D0004AE00E94C2087C01E00EF11ECC23C1F15C
:1013E000C501B4010E94FD139B01AC01C301B20110
:1013F0000E94B9154B015C016EE28DE792E00E94FC
:10140000F601E80EF91EC15018F120E030E040E28C
:1014100051E4C501B4010E945E142B013C010E94FD
:1014200098164B01B12CA12C4AE0C501B4010E94D1
:10143000C208E80EF91EC501B4010E94FD139B010C
:10144000AC01C301B2010E94B9154B015C01DBCFB5
:10145000C701CF911F910F91FF90EF90DF90CF9038
:10146000BF90AF909F908F907F906F905F904F90C4
:101470000895FB0144815581FC01248135812417A5
:10148000350778F080819181009759F0FB016081E8
:1014900071816115710529F00E94431921E0892BA2
:1014A00009F020E0822F08950F931F93CF93DF93CD
:1014B0008C01EB01FC01808191810097E1F0688152
:1014C000798161157105A9F0428153812C813D819B
:1014D0004217530770F00E943C198C819D81F801DE
:1014E000958384831D821C82DF91CF911F910F9180
:1014F00008950E94E41788819981F801918380837F
:101500008A819B81938382838C819D81958384834F
:10151000198218821B821A82E5CFCF93DF93EC01E8
:1015200088819981009711F00E94E417198218822E
:101530001D821C821B821A82DF91CF910895FC01CB
:1015400080819181009711F00C94E41708950F9316
:101550001F93CF93DF93EC0188819981009759F015
:101560002A813B812617370730F081E0DF91CF9148
:101570001F910F9108958B016F5F7F4F0E946D182F
:10158000009759F0998388831B830A832C813D81BE
:10159000232B59F7FC011082E8CF80E0E7CFEF92D0
:1015A000FF920F931F93CF93DF936115710541F461
:1015B00080E0DF91CF911F910F91FF90EF90089500
:1015C00041155105B1F07B01EC010C811D81040F27
:1015D000151FB8010E94A70A882351F32881398179
:1015E0008C819D81B701820F931F0E943C191D833E
:1015F0000C8381E0DECFEF92FF920F931F93CF9386
:10160000DF93EC017B018A01BA010E94A70A8111D4
:101610000BC0CE010E948D0ACE01DF91CF911F91A8
:101620000F91FF90EF9008951D830C83B70188817F
:1016300099810E943C19F0CFFB0101900020E9F74D
:101640003197AF01461B570B0C94FB0AFB01DC01E1
:1016500011961C921E9213961C921E92129715962A
:101660001C921E9214978617970749F0608171812A
:101670006115710521F0448155810C94FB0A089590
:10168000FC01118210821382128215821482FB01E6
:1016900001900020E9F73197AF01461B570B0C94DE
:1016A000FB0AAF92BF92CF92DF92EF92FF920F931D
:1016B0001F93CF93DF936C015B017A01890124179B
:1016C000350720F48F2D7901042F182F6CE271E07B
:1016D000C6010E94400BD5011496CD91DC91EC1609
:1016E000FD06E0F40C171D0708F4E801D501ED91A3
:1016F000FC911197EC0FFD1F108110826D917C9170
:101700006E0D7F1DC60161157105A1F00E941C0BB5
:10171000F50180819181C80FD91F1883C601DF911F
:10172000CF911F910F91FF90EF90DF90CF90BF90DE
:10173000AF9008950E948D0AEBCF1F920F920FB6C3
:101740000F9211242F933F938F939F93AF93BF9347
:101750008091750290917602A0917702B091780203
:101760003091740223E0230F2D3758F50196A11D07
:10177000B11D209374028093750290937602A0931A
:101780007702B09378028091790290917A02A091C9
:101790007B02B0917C020196A11DB11D809379025C
:1017A00090937A02A0937B02B0937C02BF91AF9199
:1017B0009F918F913F912F910F900FBE0F901F908F
:1017C000189526E8230F0296A11DB11DD2CF1F92B6
:1017D0000F920FB60F9211242F933F934F935F9365
:1017E0006F937F938F939F93AF93BF93EF93FF93E9
:1017F0008DE792E00E94D401FF91EF91BF91AF91EC
:101800009F918F917F916F915F914F913F912F9118
:101810000F900FBE0F901F9018951F920F920FB64A
:101820000F9211242F938F939F93EF93FF93E09147
:101830008D02F0918E028081E0919302F0919402EA
:1018400082FD1BC09081809196028F5F8F732091E3
:101850009702821741F0E0919602F0E0E358FD4FC5
:10186000958F80939602FF91EF919F918F912F9189
:101870000F900FBE0F901F9018958081F4CFEDE769
:10188000F2E01382128288EE93E0A0E0B0E084835D
:101890009583A683B78380E191E09183808385EC73
:1018A00090E09587848784EC90E09787868780EC2A
:1018B00090E0918B808B81EC90E0938B828B82EC1B
:1018C00090E0958B848B86EC90E0978B868B118EC5
:1018D000128E138E148EEAE1F3E01382128282E2FA
:1018E00091E0918380836CE271E082EE93E00E944C
:1018F000400B69E371E08CED93E00E94400B6CE2D9
:1019000071E086ED93E00E94400B6CE271E080EDA7
:1019100093E00C94400BCF93DF93CDB7DEB7C75461
:10192000D1090FB6F894DEBF0FBECDBF789484B551
:10193000826084BD84B5816084BD85B5826085BDCB
:1019400085B5816085BD80916E00816080936E0059
:10195000109281008091810082608093810080914B
:1019600081008160809381008091800081608093FC
:1019700080008091B10084608093B1008091B000BC
:1019800081608093B00080917A00846080937A00B7
:1019900080917A00826080937A0080917A008160E1
:1019A00080937A0080917A00806880937A00109208
:1019B000C100E0918D02F0918E0282E08083E0917F
:1019C0008902F0918A021082E0918B02F0918C02E0
:1019D00080E1808310929502E0919102F091920251
:1019E00086E08083E0918F02F09190028081806197
:1019F0008083E0918F02F0919002808188608083E3
:101A0000E0918F02F0919002808180688083E09164
:101A10008F02F091900280818F7D808380E480939B
:101A20007C0080917A00806480937A0080917A00B3
:101A300086FDFCCF6091780070917900072E000C34
:101A4000880B990B611571058105910511F00E94B4
:101A500078130E94170160936C0270936D0280935B
:101A60006E0290936F028CE391E00E94060982E47B
:101A700091E00E9406091FE3812E12E4912E1FE0DF
:101A8000A12EB12CB2E12B2EB2E03B2E8DE792E0DD
:101A90000E94B401181619060CF088C16CE271E0BE
:101AA000CE01C6960E94400B0E94740197FD0FC0A4
:101AB0008A30910561F089831A8241E050E0BE01CD
:101AC0006F5F7F4FCE01C6960E94CF0AEDCFCEA8A2
:101AD000DFA8C114D10439F00AAD1BAD76010115A0
:101AE000110509F045C0BE016A5C7F4FCE01C0966A
:101AF0000E94260B64E771E0CE0101960E94400B24
:101B0000BE016F5F7F4FCE01C0960E94390A182F29
:101B1000CE0101960E949F0A112309F426C148A90B
:101B200059A96CA97DA990E080E030E020E08617FB
:101B3000970709F453C0253031050CF04FC041150B
:101B4000510599F0FA01E80FF91FE081EA3369F4D1
:101B5000F901EE0FFF1FA1E0B0E0AC0FBD1FEA0FCF
:101B6000FB1F918380832F5F3F4F0196E0CF73016E
:101B700037012FEF621A720AD7018C91082E000CE0
:101B8000990B0E94DF13892B91F7015011090C0D5D
:101B90001D1DF8018081082E000C990B0E94DF1397
:101BA000892B31F00E151F0518F001501109F1CFE6
:101BB000A8014F5F5F4F4E195F095BAF4AAFCE146C
:101BC000DF0420F4B701C6010E942A19EEA9FFA97B
:101BD0008AAD9BADE80FF91F108285CF2530310506
:101BE00009F0DCC00B811C8149815A814F5F5F4F36
:101BF0009801BE01605D7F4FCE018A960E94510B15
:101C00008AA59BA5009709F46BC00E94811370936D
:101C1000630260936202CE018A960E949F0AED8061
:101C2000FE80A8014F5F5F4F9701BE01605D7F4F4F
:101C3000CE018A960E94510BBE01665D7F4F86EDF4
:101C400093E00E94540ACE018A960E949F0A0F8157
:101C50001885A7014F5F5F4F9801BE01605D7F4F00
:101C6000CE018A960E94510BBE01665D7F4F80EDCA
:101C700093E00E94540ACE018A960E949F0A298509
:101C80003A85A8014F5F5F4FBE01605D7F4FCE0177
:101C90008A960E94510B8AA59BA5009729F10E9464
:101CA00081137B017093010160930001CE018A963C
:101CB0000E949F0A6CE271E08CED93E00E941C0B85
:101CC00010E000E00E151F059CF441E050E06AE3CF
:101CD00071E08CED93E00E94CF0A0F5F1F4FF2CFAF
:101CE00060E070E0CB0193CF60E070E0CB01D9CF32
:101CF00089E791E00E942909809162029091630234
:101D00000E942B098FE791E00E94290986ED93E05C
:101D10000E9414098CE891E00E9429098091000139
:101D2000909101010E942B0989E991E00E94290903
:101D30008CED93E00E9414091092680210926902DF
:101D400010926A0210926B020E94170160936C025B
:101D500070936D0280936E0290936F0262EA71E05D
:101D600082EE93E00E941C0B19C08CA99DA9892BBF
:101D700009F4FBC008A919A969EA71E0C8010E9429
:101D80003319892B09F0D9C06CE271E082EE93E03F
:101D90000E941C0B8EEA91E00E940609CE01C096BB
:101DA0000E949F0ACE01C6960E949F0A8091E60378
:101DB0009091E703892B09F459C362EA71E080919D
:101DC000E2039091E3030E943319892B09F04EC37B
:101DD0008091640290916502A0916602B0916702C1
:101DE0000097A105B10509F0EDC00E942913A501D6
:101DF00094010E941F156F5F7F4F8F4F9F4F60931D
:101E0000640270936502809366029093670260910A
:101E10006402709165028091660290916702249637
:101E20001FAE1EAE249726961FAE1EAE269728968E
:101E30001FAE1EAE28972AE0AE014F5F5F4F0E9493
:101E4000BD13BE016F5F7F4FCE018E5B9F4F0E941F
:101E50001C0BBE016E5B7F4FCE01C0960E94260B0D
:101E600066ED73E0CE01C6960E94260BBE016A5C49
:101E70007F4FCE0101960E94260B4CA95DA968A94F
:101E800079A9CE0101960E94CF0A811104C0CE012A
:101E900001960E948D0ABE016F5F7F4FCE018A9628
:101EA0000E94260BCE0101960E949F0A88E791E0CE
:101EB0002EE1622E23E0722E3AE1E32E33E0F32E80
:101EC0006301FC014591559165917491F60141932F
:101ED0005193619371936F01049622E333E02E17BF
:101EE0003F0779F7109272031092730310927403F4
:101EF0001092750310927603109277031092780374
:101F00001092790310927A0310927B034EA55FA57D
:101F10006AA57BA58AE193E00E94240181E0809379
:101F20007B0360E88EE193E00E9463068091720378
:101F3000883309F453C060E0F5CF6DEB71E0C80160
:101F40000E943319892B19F482EC91E025CF67ECBC
:101F500071E0C8010E943319892B39F48FEC91E0AC
:101F60000E9406096CE271E0FBCE67EF71E0CE01E2
:101F700001960E94400BBE016F5F7F4FCE01C0965D
:101F80000E94390A182FCE0101960E949F0A112340
:101F900009F404CF81E092E00E9429092CA93DA90F
:101FA00049E050E0BE01605D7F4FCE0101960E9486
:101FB000510BCE0101960E941409CE0101960E9498
:101FC0009F0AD0CF0196A11DB11D8093640290930A
:101FD0006502A0936602B093670219CF2091730344
:101FE00030917403409175035091760360917703AB
:101FF000709178038091790390917A0303E00E94B5
:10200000EC1608E30E940717622F8EE193E00E940E
:1020100063062091730330917403409175035091CE
:1020200076036091770370917803809179039091A2
:102030007A0303E00E94EC1600E30E940717622F68
:102040008EE193E00E946306209173033091740344
:1020500040917503509176036091770370917803F6
:102060008091790390917A0303E00E94EC1608E2D4
:102070000E940717622F8EE193E00E946306209171
:10208000730330917403409175035091760360910E
:102090007703709178038091790390917A0303E03C
:1020A0000E94EC1600E20E940717622F8EE193E077
:1020B0000E9463062091730330917403409175036D
:1020C0005091760360917703709178038091790342
:1020D00090917A0303E00E94EC1608E10E94071732
:1020E000622F8EE193E00E9463062091730330918A
:1020F000740340917503509176036091770370915A
:1021000078038091790390917A0303E00E94EC16A2
:1021100000E10E940717622F8EE193E00E946306A0
:1021200020917303309174034091750350917603AD
:1021300060917703709178038091790390917A038D
:1021400003E00E94EC1608E00E940717622F8EE160
:1021500093E00E94630660917303660F660F660F3B
:102160008EE193E00E946306D70114966D917D91F4
:102170008D919C9117970E94E516F70164837583F2
:1021800086839783F4E0EF0EF11C2EE233E02E15E8
:102190003F0551F78E010F5F1F4FD3018D913D0118
:1021A0001F928F933F922F921F930F930E9451196A
:1021B0000E5F1F4F0F900F900F900F900F900F908A
:1021C0006C147D0451F719A6BE016F5F7F4FCE01DD
:1021D000CC960E94400BCE018A960E949F0ACE01A7
:1021E000C6960E949F0ACE01C0960E949F0AC09088
:1021F0006802D0906902E0906A02F0906B02BFEF33
:10220000CB1ADB0AEB0AFB0AC0926802D092690281
:10221000E0926A02F0926B02C701B60128EE33E049
:1022200040E050E00E948815672B682B692B09F06D
:1022300081C00E94170100916C0210916D022091E3
:102240006E0230916F022B013C01401A510A620A62
:10225000730A09F49AC1C701B6010E94FD1320E078
:1022600030E04AE754E40E945E146B017C01C30134
:10227000B2010E94FD139B01AC01C701B6010E948F
:1022800026166B017C0187E192E00E94290960918A
:1022900068027091690280916A0290916B024AE033
:1022A0000E94C20880E292E00E94290960916402C3
:1022B0007091650280916602909167024AE00E94E7
:1022C000C2088AE292E00E94290942E0C701B601F1
:1022D0000E945D0983E392E00E94290928E030E032
:1022E00050E040E0BE01645C7F4FCE018A960E94C0
:1022F000510BBE01665D7F4FCE0101960E94260BF9
:1023000043E050E060E771E0CE0101960E94CF0A01
:10231000811104C0CE0101960E948D0ACE01019662
:102320000E941409CE0101960E949F0ACE018A964E
:102330000E949F0A6CED73E0CE01CC960E94390A90
:10234000882309F475C00E94170100916C02109156
:102350006D0220916E0230916F026B017C01C01AF8
:10236000D10AE20AF30A412C512C3201F1F06091BA
:1023700068027091690280916A0290916B020E94DA
:10238000FD1320E030E04AE754E40E945E142B0184
:102390003C01C701B6010E94FD139B01AC01C301C2
:1023A000B2010E9426162B013C0180E492E00E94BB
:1023B0002909609164027091650280916602909192
:1023C00067024AE00E94C20880E192E00E94290967
:1023D000CE01CC960E94140987E492E00E9429095C
:1023E000C701B6010E94FD1320E030E04AE754E443
:1023F0000E94261642E00E945D0981E592E00E945B
:10240000290942E0C301B2010E945D0985E592E01D
:102410000E940609109264021092650210926602F0
:10242000109267026CE271E082EE93E00E941C0B56
:102430008091640290916502A0916602B09167025A
:102440008F3F9F4FAF4FBF4F41F4109264021092E5
:1024500065021092660210926702CE01CC960E942D
:102460009F0ACE018E5B9F4F0E949F0A0E94170118
:1024700000917002109171022091720230917302EA
:10248000601B710B820B930B6131774281059105C3
:1024900008F45FC00E94170100916C0210916D0258
:1024A00020916E0230916F026B017C01C01AD10A3B
:1024B000E20AF30A09F46DC0609168027091690242
:1024C00080916A0290916B020E94FD1320E030E03F
:1024D0004AE754E40E945E142B013C01C701B60197
:1024E0000E94FD139B01AC01C301B2010E9426169C
:1024F0006B017C018BE592E00E94290960916802E2
:102500007091690280916A0290916B024AE00E9488
:10251000C20880E192E00E94290942E0C701B601A9
:102520000E945D0980E192E00E9429090E94170142
:102530004AE00E94C2088AE291E00E94B5080E9427
:1025400017016093700270937102809372029093EE
:1025500073020E94F2006B017C010E94F2006C1970
:102560007D098E099F09683E734081059105A8F396
:1025700080E090E0892B09F489CA0E94C001882379
:1025800009F480CA0E9400007DCAC12CD12C7601BA
:102590007ACEC12CD12C7601ADCF80ED93E00E9494
:1025A0009F0A86ED93E00E949F0A8CED93E00E94C3
:1025B0009F0A82EE93E00C949F0A8F929F92AF92B3
:1025C000BF92CF92DF92EF92FF92CF93DF93EC0115
:1025D000688179818A819B816115710581059105E9
:1025E00021F464E279ED8BE597E02DE133EF41E0F2
:1025F00050E00E941F1549015A019B01AC01A7EA56
:10260000B1E40E943E156B017C01ACEEB4EFA50174
:1026100094010E944C15C60ED71EE81EF91EF7FE47
:1026200006C081E0C81AD108E10880E8F80AC8822B
:10263000D982EA82FB82C701B6019F77DF91CF91F1
:10264000FF90EF90DF90CF90BF90AF909F908F90D2
:1026500008958F929F92AF92BF92CF92DF92EF92A6
:10266000FF926091020170910301809104019091A9
:102670000501611571058105910521F464E279ED8B
:102680008BE597E02DE133EF41E050E00E941F150C
:1026900049015A019B01AC01A7EAB1E40E943E1531
:1026A0006B017C01ACEEB4EFA50194010E944C15C6
:1026B000C60ED71EE81EF91EF7FE06C081E0C81A36
:1026C000D108E10880E8F80AC0920201D092030123
:1026D000E0920401F0920501C701B6019F77FF90D7
:1026E000EF90DF90CF90BF90AF909F908F90089524
:1026F000609302017093030180930401909305019C
:1027000008951F93FC0199278827BC01E894119133
:102710001032E9F3193010F01E30C8F31B3251F0BB
:102720001D3249F4689406C00E94A813610F711D00
:10273000811D911D119110531A30B0F33EF4909504
:102740008095709561957F4F8F4F9F4F1F91089592
:10275000592F482F372F262F660F771F881F991F55
:10276000660F771F881F991F620F731F841F951FA5
:10277000660F771F881F991F0895BB27FA01A62FA0
:102780006217710581059105330B30FB66F0AA27AE
:10279000660F771F881F991FAA1FA21710F0A21B90
:1027A00063953850A9F7A05DAA3308F0A95DA193FD
:1027B00036F7B111B1931082CA010C94E81391114C
:1027C0000C94CB14803219F089508550C8F70895C5
:1027D000DC01FC01672F71917723E1F7329704C088
:1027E0007C916D9370836291AE17BF07C8F3089513
:1027F0000E943A1408F481E00895E89409C097FB18
:102800003EF490958095709561957F4F8F4F9F4FC7
:102810009923A9F0F92F96E9BB279395F69587950B
:1028200077956795B795F111F8CFFAF4BB0F11F4CE
:1028300060FF1BC06F5F7F4F8F4F9F4F16C0882375
:1028400011F096E911C0772321F09EE8872F762FAB
:1028500005C0662371F096E8862F70E060E02AF0EC
:102860009A95660F771F881FDAF7880F96958795D8
:1028700097F90895990F0008550FAA0BE0E8FEEFAD
:1028800016161706E807F907C0F012161306E40734
:10289000F50798F0621B730B840B950B39F40A262D
:1028A00061F0232B242B252B21F408950A2609F40B
:1028B000A140A6958FEF811D811D08950E9471147E
:1028C0000C94E5140E94D71438F00E94DE1420F016
:1028D000952311F00C94CE140C94D41411240C9460
:1028E00019150E94F61470F3959FC1F3950F50E0EF
:1028F000551F629FF001729FBB27F00DB11D639FB2
:10290000AA27F00DB11DAA1F649F6627B00DA11D57
:10291000661F829F2227B00DA11D621F739FB00DFD
:10292000A11D621F839FA00D611D221F749F33276D
:10293000A00D611D231F849F600D211D822F762F06
:102940006A2F11249F5750409AF0F1F088234AF0E3
:10295000EE0FFF1FBB1F661F771F881F915050404F
:10296000A9F79E3F510580F00C94CE140C941915D4
:102970005F3FE4F3983ED4F3869577956795B795D6
:10298000F795E7959F5FC1F7FE2B880F911D9695F0
:10299000879597F9089599278827089597F99F674C
:1029A00080E870E060E008959FEF80EC08950024D7
:1029B0000A941616170618060906089500240A94A4
:1029C00012161306140605060895092E0394000C2A
:1029D00011F4882352F0BB0F40F4BF2B11F460FFB9
:1029E00004C06F5F7F4F8F4F9F4F089557FD9058E2
:1029F000440F551F59F05F3F71F04795880F97FBC3
:102A0000991F61F09F3F79F087950895121613067C
:102A10001406551FF2CF4695F1DF08C016161706AB
:102A20001806991FF1CF86957105610508940895E0
:102A3000E894BB2766277727CB0197F90895052EE1
:102A400097FB1EF400940E94361557FD07D00E9494
:102A5000881507FC03D04EF40C943615509540951C
:102A6000309521953F4F4F4F5F4F0895909580953A
:102A7000709561957F4F8F4F9F4F08950E94AA15C3
:102A8000A59F900DB49F900DA49F800D911D1124C2
:102A90000895B7FF0C943E150E943E15821B930BC0
:102AA00008952F923F924F925F926F927F928F92F2
:102AB0009F92AF92BF92CF92DF92EF92FF920F93CD
:102AC0001F93CF93DF93CDB7DEB7CA1BDB0B0FB6D7
:102AD000F894DEBF0FBECDBF09942A883988488894
:102AE0005F846E847D848C849B84AA84B984C8842A
:102AF000DF80EE80FD800C811B81AA81B981CE0F21
:102B0000D11D0FB6F894DEBF0FBECDBFED01089505
:102B1000A1E21A2EAA1BBB1BFD010DC0AA1FBB1FE1
:102B2000EE1FFF1FA217B307E407F50720F0A21B53
:102B3000B30BE40BF50B661F771F881F991F1A94C0
:102B400069F760957095809590959B01AC01BD01EA
:102B5000CF010895A29FB001B39FC001A39F700D44
:102B6000811D1124911DB29F700D811D1124911D95
:102B700008955058BB27AA270E94D1150C94E5143C
:102B80000E94D71438F00E94DE1420F039F49F3FE1
:102B900019F426F40C94D4140EF4E095E7FB0C948D
:102BA000CE14E92F0E94F61458F3BA176207730780
:102BB0008407950720F079F4A6F50C9418150EF407
:102BC000E0950B2EBA2FA02D0B01B90190010C013D
:102BD000CA01A0011124FF27591B99F0593F50F455
:102BE000503E68F11A16F040A22F232F342F4427AD
:102BF000585FF3CF469537952795A795F0405395A5
:102C0000C9F77EF41F16BA0B620B730B840BBAF074
:102C10009150A1F0FF0FBB1F661F771F881FC2F7DF
:102C20000EC0BA0F621F731F841F48F487957795F3
:102C30006795B795F7959E3F08F0B0CF9395880FAD
:102C400008F09927EE0F9795879508950E943A16F8
:102C50000C94E5140E94DE1458F00E94D71440F042
:102C600029F45F3F29F00C94CE1451110C941915DE
:102C70000C94D4140E94F61468F39923B1F35523ED
:102C800091F3951B550BBB27AA276217730784077F
:102C900038F09F5F5F4F220F331F441FAA1FA9F315
:102CA00035D00E2E3AF0E0E832D091505040E69503
:102CB000001CCAF72BD0FE2F29D0660F771F881F64
:102CC000BB1F261737074807AB07B0E809F0BB0B57
:102CD000802DBF01FF2793585F4F3AF09E3F51056B
:102CE00078F00C94CE140C9419155F3FE4F3983EE1
:102CF000D4F3869577956795B795F7959F5FC9F754
:102D0000880F911D9695879597F90895E1E0660FD4
:102D1000771F881FBB1F621773078407BA0720F04D
:102D2000621B730B840BBA0BEE1F88F7E0950895B6
:102D30000E94FE1488F09F5798F0B92F9927B75139
:102D4000B0F0E1F0660F771F881F991F1AF0BA954F
:102D5000C9F714C0B13091F00E941815B1E0089580
:102D60000C941815672F782F8827B85F39F0B93F72
:102D7000CCF3869577956795B395D9F73EF4909502
:102D80008095709561957F4F8F4F9F4F08950E945A
:102D90003A1408F48FEF08950E943A14880B990BA7
:102DA000089597FB072E16F4009407D077FD09D0FD
:102DB0000E942E1707FC05D03EF4909581959F4FF9
:102DC0000895709561957F4F089569279627692723
:102DD0007827872778270895002E083090F0982FBD
:102DE000872F762F652F542F432F322F22270850FD
:102DF000F4CF220F331F441F551F661F771F881FF4
:102E0000991F0A95B2F7002D089597FD1094002E92
:102E1000083098F00850232F342F452F562F672F56
:102E2000782F892F912DF4CF1594979587957795C5
:102E3000679557954795379527950A95AAF71124D1
:102E4000002D08950024A7FD00942A0F301D401D79
:102E5000501D601D701D801D901D0895AA1BBB1B79
:102E600051E107C0AA1FBB1FA617B70710F0A61B8A
:102E7000B70B881F991F5A95A9F780959095BC01AB
:102E8000CD010895EE0FFF1F0590F491E02D0994F8
:102E90000F931F93CF93DF938230910510F482E05C
:102EA00090E0E091EA03F091EB0330E020E0B0E045
:102EB000A0E0309799F42115310509F44AC0281B88
:102EC000390B24303105D8F58A819B816115710554
:102ED00089F1FB0193838283FE0111C040815181FE
:102EE0000281138148175907E0F04817590799F4F0
:102EF000109761F012960C93129713961C933296CA
:102F0000CF01DF91CF911F910F9108950093EA03B4
:102F10001093EB03F4CF2115310551F042175307FD
:102F200038F0A901DB019A01BD01DF01F801C1CF31
:102F3000EF01F9CF9093EB038093EA03CDCFFE012D
:102F4000E20FF31F81939193225031093983288333
:102F5000D7CF2091E8033091E903232B41F420914E
:102F60000801309109013093E9032093E80320918F
:102F70000601309107012115310541F42DB73EB707
:102F800040910A0150910B01241B350BE091E8039D
:102F9000F091E903E217F307A0F42E1B3F0B28176B
:102FA000390778F0AC014E5F5F4F2417350748F0C2
:102FB0004E0F5F1F5093E9034093E8038193919371
:102FC0009FCFF0E0E0E09CCFCF93DF930097E9F054
:102FD000FC01329713821282A091EA03B091EB03B5
:102FE000ED0130E020E01097A1F420813181820FC3
:102FF000931F2091E8033091E9032817390709F05E
:1030000061C0F093E903E093E803DF91CF91089565
:10301000EA01CE17DF07E8F54A815B819E01411581
:103020005105B1F7E901FB83EA8349915991C40F36
:10303000D51FEC17FD0761F4808191810296840F02
:10304000951FE90199838883828193819B838A8379
:10305000F0E0E0E012968D919C9113970097B9F5FE
:103060002D913C911197CD010296820F931F2091D3
:10307000E8033091E9032817390739F6309751F5FD
:103080001092EB031092EA03B093E903A093E803D4
:10309000BCCFD383C28340815181840F951FC81751
:1030A000D90761F44E5F5F4F88819981480F591F9E
:1030B000518340838A819B819383828321153105CB
:1030C00009F0B0CFF093EB03E093EA039ECFFD014C
:1030D000DC01C0CF13821282D7CFB0E0A0E0E3E7DB
:1030E000F8E10C9453158C01009751F4CB010E9428
:1030F00048178C01C801CDB7DEB7E0E10C946F151D
:10310000FC01E60FF71F9C0122503109E217F3077B
:1031100008F49DC0D901CD91DC911197C617D7074E
:1031200098F0C530D10530F3CE0104978617970784
:1031300008F3C61BD70B2297C193D1936D937C9351
:10314000CF010E94E417D6CF5B01AC1ABD0A4C0137
:103150008C0E9D1EA091EA03B091EB03512C412CE3
:10316000F12CE12C109731F58091E8039091E9035F
:103170008815990509F05CC04616570608F058C036
:103180008091060190910701009741F48DB79EB799
:1031900040910A0150910B01841B950BE817F90728
:1031A00008F055C0F093E903E093E803F901718357
:1031B0006083A0CF8D919C91119712966C9012977D
:1031C00013967C901397A815B90559F56C0142E048
:1031D000C40ED11CCA14DB0420F1AC014A195B09EE
:1031E000DA011296159780F06282738251834083D0
:1031F000D9016D937C93E114F10471F0D70113961A
:10320000FC93EE93129776CF22968C0F9D1FF901B7
:1032100091838083F301EFCFF093EB03E093EA0314
:1032200069CF4816590608F42C017D01D3019ACFC5
:10323000CB010E9448177C01009749F0AE01B8010C
:103240000E942A19C8010E94E417870153CF10E099
:1032500000E050CFFB01DC0102C001900D92415013
:103260005040D8F70895FB01DC018D910190801941
:103270000110D9F3990B0895FB01DC0101900D9227
:103280000020E1F70895FB01DC014150504030F08F
:103290008D910190801919F40020B9F7881B990BC2
:1032A0000895AEE0B0E0E7E5F9E10C945F150D8913
:1032B0001E8986E08C831A8309838FEF9FE79E83A4
:1032C0008D83AE01475E5F4F6F89788DCE01019689
:1032D0000E9474192F813885020F131FF801108284
:1032E0002E96E4E00C947B15ABE0B0E0EAE7F9E160
:1032F0000C9451157C013B018A01FC011782168256
:10330000838181FFC8C1CE0101965C01F7019381E1
:10331000F30193FD859193FF81913F01882309F487
:1033200053C1853239F493FD859193FF81913F011B
:10333000853229F4B70190E00E94641BE7CF912CFD
:10334000212C312CFFE1F31538F08B3211F190F480
:10335000803209F1833229F137FC3CC020ED280F7F
:103360002A3050F536FE20C08AE0989E200D1124A8
:10337000922E06C08D3291F0803371F7689430F848
:10338000F30193FD859193FF81913F018111DACF84
:1033900021C0689431F8689432F8F2CF689433F819
:1033A000EFCF689434F8ECCFEAE02E9E200D112484
:1033B000222E689435F8E4CF8E3229F436FC04C10D
:1033C000689436F8DDCF8C3619F4689437F8D8CF86
:1033D0008836B1F2982F9F7D95549330E0F0833674
:1033E000A1F18337C1F1833509F063C02801F2E010
:1033F0004F0E511CF801C080D180692D70E036FC61
:1034000002C06FEF7FEFC6010E944E1B4C01689413
:1034100037F882010AC00C5F1F4FFFE3F98388244D
:103420008394912C6501E89437F833FE2DC0522C1B
:103430008114910471F5552009F468CFB70180E239
:1034400090E00E94641B5A94F6CFF8018081898332
:103450000E5F1F4FE4CF2801F2E04F0E511CF80120
:10346000C080D180692D70E036FC02C06FEF7FEF25
:10347000C6010E94591B4C018201D5CFB70180E2E1
:1034800090E00E94641B2A942814190409F0B0F7F4
:10349000CECFF60137FC859137FE81916F01B701E0
:1034A00090E00E94641B51105A94F1E08F1A910829
:1034B000BFCF843619F0893609F077C0F80137FE9E
:1034C0006BC060817181828193810C5F1F4FF32DEE
:1034D000FF763F2E97FF09C0909580957095619576
:1034E0007F4F8F4F9F4F689437F82AE030E0A50157
:1034F0000E94941BC82ECA188C2C432C36FE0CC07C
:10350000E89440F8C91440F434FE05C032FC03C00E
:10351000F32DFE7E4F2E892C44FE95C0FE01EC0D4E
:10352000F11D8081803309F087C0242D297E422E31
:10353000842D8870582E43FC95C040FE8FC09C2C73
:10354000821418F42C0C922C981844FE91C0B701E8
:1035500080E390E00E94641B42FE09C088E790E08F
:1035600041FE02C088E590E0B7010E94641BC914C7
:1035700008F48AC0CA94D12C9FEFC91AD90ACA0C80
:10358000DB1CF60182916F01B70190E00E94641B81
:10359000AC14BD04B1F74FCF60817181072E000CD0
:1035A000880B990B0E5F1F4F92CFD32CE894D4F861
:1035B0002AE030E0853739F1232D297FD22E8F364E
:1035C00001F148F48835A9F0F701868197812B969F
:1035D000E2E10C946D15803749F08837A9F7D4FEE5
:1035E00002C06894D2F820E130E00DC06894D4F8AD
:1035F000F6CF34FE03C0822F8660D82E20E132E061
:1036000002C028E030E0F801D7FE0FC06081718170
:10361000828193810C5F1F4FA5010E94941BC82ECD
:10362000CA183D2CE89437F867CF6081718190E02B
:1036300080E00E5F1F4FF0CF42FC02C0839478CF32
:103640008394839475CF842D867809F471CFF6CF57
:10365000B70180E290E00E94641B83948214C0F35F
:10366000512C73CF522C5818821408F46ECFF8CF17
:10367000842D867809F47BCF8BE241FE80E247FC03
:103680008DE2B70190E071CFB70180E390E00E9436
:10369000641B9A946CCF8FEF9FEF99CFFC0105903C
:1036A000615070400110D8F7809590958E0F9F1F44
:1036B0000895FC016150704001900110D8F7809589
:1036C00090958E0F9F1F08950F931F93CF93DF93B5
:1036D000182F092FEB018B8181FD09C01FEF0FEF20
:1036E000812F902FDF91CF911F910F91089582FF2D
:1036F00014C02E813F818C819D81281739073CF4AD
:10370000E881F981CF0101969983888310838E81A6
:103710009F8101969F838E83E3CFE885F985812F72
:103720000995892BA1F3DACFFA01AA27283051F1A4
:10373000203181F1E8946F936E7F6E5F7F4F8F4FE2
:103740009F4FAF4FB1E03ED0B4E03CD0670F781F41
:10375000891F9A1FA11D680F791F8A1F911DA11D26
:103760006A0F711D811D911DA11D20D009F468945F
:103770003F912AE0269F11243019305D3193DEF607
:10378000CF010895462F4770405D4193B3E00FD0BD
:10379000C9F7F6CF462F4F70405D4A3318F0495DA8
:1037A00031FD4052419302D0A9F7EACFB4E0A6958B
:1037B0009795879577956795BA95C9F700976105AD
:1037C000710508959B01AC010A2E06945795479503
:1037D00037952795BA95C9F7620F731F841F951FF8
:1037E000A01D089510E0C7ECD0E004C0FE010E94C7
:1037F00042172196C83CD107C9F7F894FFCF0100C2
:10380000010000000000EC03800000000000F60151
:10381000240151014302B4016001A601000000002F
:103820007E082401600623010D0A006E616E0069A6
:103830006E66006F76660030300052454144590094
:103840004156524953204D696E65722076302E31B3
:10385000202D20736861312048617368202D205726
:10386000616974696E6720666F72206A6F622E2EBE
:103870002E004A4F423A004A4F422023004C6173C7
:10388000742070726F6F663A2000446966666963DF
:10389000756C74793A20005461726765743A20003F
:1038A0004D494E494E470053544F500053746F706A
:1038B000706564206D696E696E670050494E4700FF
:1038C000504F4E47005355434345535300426C6F8E
:1038D000636B20616363657074656421205761695F
:1038E00074696E6720666F72206E657874206A6FE7
:1038F000622E2E2E0052454A45435445443A00421A
:103900006C6F636B2072656A65637465643A20004E
:1039100025303278004861736865733A20002C20A6
:103920004E6F6E63653A20002C20526174653A2018
:103930000020482F732C20486173683A2000464FBE
:10394000554E442000466F756E6420696E200073EA
:1039500020280020482F732900535441545320003D
:107E000085E08093810082E08093C00088E18093C8
:107E1000C10086E08093C20080E18093C40084B7F3
:107E200014BE81FFD0D089E2C8D0259A86E020E335
:107E30003CEF91E0309385002093840096BBB09B8B
:107E4000FECF1D9AA8958150A9F7DD24D394A5E013
:107E5000EA2EF1E1FF2EA4D0813421F481E0BED0DE
:107E600083E024C0823411F484E103C0853419F422
:107E700085E0B4D08AC08535A1F492D0082F10E0F7
:107E800010930102009300028BD090E0982F882776
:107E9000802B912B880F991F9093010280930002F1
:107EA00073C0863529F484E099D080E071D06DC02C
:107EB000843609F043C07CD0E0910002F0910102C9
:107EC00083E080935700E895C0E0D1E069D08993C2
:107ED000809102028150809302028823B9F778D002
:107EE00007B600FCFDCF4091000250910102A0E0D6
:107EF000B1E02C9130E011968C91119790E0982F81
:107F00008827822B932B1296FA010C01D0925700EE
:107F1000E89511244E5F5F4FF1E0A038BF0749F7A5
:107F2000E0910002F0910102E0925700E89507B657
:107F300000FCFDCFF0925700E89527C08437B9F4D4
:107F400037D046D0E0910002F09101023196F093D3
:107F50000102E09300023197E4918E2F19D08091B5
:107F60000202815080930202882361F70EC0853798
:107F700039F42ED08EE10CD085E90AD08FE096CF6F
:107F8000813511F488E019D023D080E101D063CF8E
:107F9000982F8091C00085FFFCCF9093C600089574
:107FA000A8958091C00087FFFCCF8091C6000895FE
:107FB000F7DFF6DF80930202F3CFE0E6F0E098E12E
:107FC00090838083089580E0F8DFEE27FF270994EF
:107FD000E7DF803209F0F7DF84E1DACF1F93182F53
:0C7FE000DFDF1150E9F7F4DF1F91089576
:00000001FF
